:020000040800F2
:10000000E015002079190008D1090008D30900087B
:10001000D7090008DB090008DF090008000000001C
:10002000000000000000000000000000E5090008DA
:10003000E309000800000000E7090008E9090008DA
:10004000F1090008F3090008F5090008F70900089C
:10005000F9090008FB090008FD090008FF0900086C
:10006000010A0008030A0008050A0008070A000838
:10007000090A00080B0A00080D0A00080F0A000808
:10008000110A0008130A0008150A0008170A0008D8
:10009000190A0008670B0008690B00086B0B0008C1
:1000A0006D0B00086F0B0008710B0008730B000844
:1000B000750B0008910B0008930B0008950B0008C6
:1000C000970B0008990B00089B0B00089D0B00087C
:1000D0009F0B0008A10B0008330D00083110000829
:1000E000D1110008D3110008D5110008D71100085C
:1000F000D9110008DB110008DD110008DF1100082C
:10010000E1110008E3110008E5110008E7110008FB
:10011000E9110008EB110008ED110008EF110008CB
:10012000F1110008F3110008F5110008F71100089B
:1001300000F002F800F04AF80AA090E8000C8244AF
:100140008344AAF10107DA4501D100F03FF8AFF28C
:10015000090EBAE80F0013F0010F18BFFB1A43F0A5
:1001600001031847D83F0000F83F00000A4410F888
:10017000014B14F00F0508BF10F8015B240908BFFC
:1001800010F8014B6D1E05D010F8013B6D1E01F8F3
:10019000013BF9D1641E03D0641E01F8015BFBD161
:1001A0009142E4D37047000000230024002500267C
:1001B000103A28BF78C1FBD8520728BF30C148BFCA
:1001C0000B6070471FB51FBD10B510BD03F072FF67
:1001D0001146FFF7F7FF00F009F803F090FF03B4B2
:1001E000FFF7F2FF03BC03F097FF00001CB501F01E
:1001F00053FA01F0FFFA4FF48051964802F084F967
:100200004FF40061934802F081F94FF48061914806
:1002100002F07AF92B2001F052FA19E18E480078A9
:10022000012829D18D480078012804D002280BD05C
:10023000032819D111E00120894908708949087003
:1002400000208549087013E0002086490870824923
:100250000870BB2001F033FA0AE0BC2001F02FFA4D
:1002600000207D49087003E000207B49087000BF32
:1002700000BF0020794908707B480078012877D1B9
:100280007A480078002873D1794800787949088045
:10029000084600884FF6FF7101EA00207549088082
:1002A000734840780988084472490880704880780B
:1002B00071490880084600884FF6FF7101EA002066
:1002C0006D4908806A48C078098808446A490880EE
:1002D00067480079694908706548801D6849086069
:1002E000801F40796749088063490988664A92FB04
:1002F000F1F000EBD07149103239644A11805D4849
:1003000000880B2804DB10460088B0F5C87F02DDAA
:10031000322058490880584800880A2825DB56486A
:100320000088B0F57A7F20DC51480079FF281CDC7A
:100330004F48C07AFF2818DC4D48007BFF2814D1B5
:100340004B48407BFF2810D14948807BFF280CD1C7
:10035000484800880A2805DD01204D4908702920F9
:1003600001F0ADF90A2001F022FA00203E490870A0
:100370003B48007801281CD13A480078012818D160
:1003800043480078012814D10A2001F010FA3B48B4
:1003900000783B490968CDE900103A48038836489F
:1003A000028834480188008800F048FA00202D496E
:1003B000087038480078012840D1374800882E4915
:1003C0000988884207D02C480088334908802A4889
:1003D000008801F0CFF92DE03048007808B32448B8
:1003E000007824490880084600884FF6FF7101EA2A
:1003F0000020204908801E484078098808441D498B
:100400000880084600880B2805DB084600881F493D
:100410000988884202DD0B201649088000201F4908
:10042000087016480378124A0B3212480188008877
:1004300000F038F8174800780028CDD11848007827
:10044000012802D1002016490870002005490870D3
:10045000E4E600000008014007000020060000203C
:1004600011000020120000201300002000000020D6
:100470003C0100200A000020080000200C000020A1
:10048000180000201C00002040420F002400002023
:10049000100000201F000020260000202000002067
:1004A000140000207FB515462C780121880703F041
:1004B000FEF8002C45D0FE4A918A908A01F0E5F9B9
:1004C0000120FC4908602020FB490861012001F05F
:1004D0006EF90120F749091D08602020F64948619E
:1004E000F34931F81400002101F0CFF90121F1485E
:1004F000103802F009F8BDF80010A1F10A0001F06F
:1005000056F90121EB48103802F000F801F0F7F934
:10051000E74830F81410002001F0B7F92021E64830
:1005200001F0F2FFBDF80410A1F10A0001F03FF95B
:100530002021E14801F0EAFF322001F038F901F012
:10054000DEF90A2001F033F900BFDC48007800280A
:10055000FBD00020D949087000214FF0804003F003
:10056000A6F87FBD0FB5012949D19DF800009DF87F
:1005700008201044C0B20090D148B0F90000401CDF
:100580009DF80C205043CE4AB2F90020CD4BB3F970
:100590000030D21ABDF814305A4390420BDD9DF85A
:1005A0000000401CC0B20090C5480088401C00B24A
:1005B000C34A10806DE0C248B0F90000401C9DF8AD
:1005C0000C205043BE4AB2F90020BE4BB3F90030B4
:1005D000D21ABDF814305A4390420CDCB848008857
:1005E000401C00B2B64A1080B6480088401C00B2D9
:1005F000B44A10804DE00020B14A108049E021BB90
:100600009DF800009DF80820801AC0B20090AC4808
:10061000B0F90000401C9DF80C205043A84AB2F9E4
:100620000020A84BB3F90030D21ABDF814305A4359
:1006300090420BDD9DF80000401EC0B20090A04823
:100640000088401C00B29E4A108022E09C48B0F90D
:100650000000401C9DF80C205043994AB2F900203C
:10066000984BB3F90030D21ABDF814305A43904277
:100670000CDC93480088401C00B2914A10809148DD
:100680000088401C00B28F4A108002E000208C4A93
:1006900010809DF8000004B000BD2DE9FF4182B03C
:1006A0000C9D2E780121880703F001F8002E45D01B
:1006B0007F4A918A908A01F0E8F801207D4908601C
:1006C00020207D490861012001F071F8012079495D
:1006D000091D0860202078494861754931F81600E5
:1006E000002101F0D2F801217248103801F00CFF0E
:1006F000BDF80810A1F10A0001F059F801216D4878
:10070000103801F003FF01F0FAF8694830F81610CC
:10071000002001F0BAF82021674801F0F5FEBDF88D
:100720000C10A1F10A0001F042F82021624801F00A
:10073000EDFE322001F03BF801F0E1F84FF0010846
:100740009DF91200002803DD00BF9DF8124009E06A
:100750009DF91200002805DC4FF000089DF81200FA
:1007600000F07F04ACB1BDF8140094FBF0F0C7B208
:10077000BDF814000090BDF8141007FB1141CBB276
:1007800028783A464146FFF7EDFE28700A2001F02E
:100790000EF800BF494800780028FBD000204749E8
:1007A000087000214FF0804002F081FF06B0BDE8E4
:1007B000F0810FB4F0B585B005460E46174604AC7F
:1007C0009DF83A002070AA2000F079FF25E03E480D
:1007D000007801281AD1BDF83400ADF808009DF862
:1007E00036008DF80A00BDF83800ADF80C009DF811
:1007F0003A008DF80E009DF83C00CDE900403146EE
:100800002846DDE90223FFF748FF00E009E0BDF8D4
:100810003400401E80B2ADF83400BDF8340000282A
:10082000D5D100BF00202649088026490880BB207A
:1008300000F045FF05B0F0BC5DF814FB2DE9F04376
:1008400087B08046894615461E460E9C27461F489F
:100850000088A84204D01D480580284600F08AFF81
:100860006CE03C4614F8010BADF81400BDF8140020
:100870004FF6FF7101EA0020ADF8140014F8011BD7
:10088000BDF81400084480B2ADF8140014F8011B40
:1008900048B28DF8160014F8010BADF81800BDF839
:1008A00018004FF6FF7101EA0020ADF818000FE0C4
:1008B00034000020100C01400010014030000020E6
:1008C000280000202A00002012000020260100201D
:1008D00014F8011BBDF81800084480B2ADF81800E8
:1008E00014F8010B8DF81A009DF81A00782802DD23
:1008F0001E208DF81A001448007801281BD1BDF87D
:100900001400ADF80C009DF816008DF80E00BDF82F
:100910001800ADF810009DF81A008DF812009DF82F
:100920003C000190049800902A4649464046039BAB
:10093000FFF73FFF00E003E0701E86B2002E90D16B
:1009400000BF07B0BDE8F0831200002000BF1220F6
:100950001849086000BF00BF174818494860184888
:10096000086000BF00BF1548006800F40030002890
:10097000F9D000BF1148006800F000700028F9D0DD
:1009800000BF0E48406800F00C000828F9D100BFF5
:1009900000BF0A48806940F00400084988610020CF
:1009A00008490860091D086000BF70470648704785
:1009B000064870470020024002841D0000100240DB
:1009C00082000101000801400051250200A24A04F2
:1009D000704700BFFEE700BFFEE700BFFEE700BFB5
:1009E000FEE770477047704710B500F0F4FE10BD89
:1009F000704770477047704770477047704770473F
:100A0000704770477047704770477047704770472E
:100A1000704770477047704700B585B00020009060
:100A200001908DF808008DF80A008DF813008DF8FC
:100A30000B0000218DF80C108DF80D108DF80E10A4
:100A40008DF80F108DF810108DF811108DF8121010
:100A5000694601F05CFA9DF80A00032826D1FB489C
:100A6000007818BB9DF80B0080281DD19DF80C0064
:100A7000012806D19DF80D00F54908700120F549BF
:100A800008709DF80C00FF280ED19DF80D0003287A
:100A900003D10020F049087006E09DF80D00EC49F4
:100AA00008700120EB49087005B000BD9DF80A00F0
:100AB000042824D1E548007808BB9DF80B00802865
:100AC0001CD19DF80C00012818D1E04908709DF850
:100AD0000D00E2490880084600884FF6FF7101EAE0
:100AE0000020DE4908809DF80E0009880844DB4993
:100AF00008800020DA490880DA490870D4E7D34832
:100B0000007801282DD100200DE00DF10B01095CCA
:100B1000D54AD34B1B88D154D1490988491CD04AA6
:100B20001180411CC8B29DF80A108142EDDCCB490E
:100B30000988CB4A1288914206DA0121CB4A11700A
:100B40000021C24A11700BE0C4490988C44A1288C6
:100B5000914202D10021BD4A11700121C44A117095
:100B6000A2E700BFA0E77047704770477047704723
:100B70007047704710B50121880703F069F830B15C
:100B80000120BC4908700121800703F072F810BDF4
:100B9000704770477047704770477047704770479D
:100BA00000B587B040F22551B34803F0DCF90128C5
:100BB00074D1B14803F084F9B0490881084600783F
:100BC00098B908460089802808D1012008700020C3
:100BD0008870C8700873C8728872487340F22551D3
:100BE000A54803F0F2F907B000BDA4488078F0B939
:100BF000A248007801281AD1A0480089012803D111
:100C00009E49887288700CE09C480089022804D1B3
:100C100001209A494873887003E0002097490870C2
:100C2000887040F22551944803F0CFF9DBE79348F0
:100C3000807A012814D191480078012810D18F487A
:100C400000898349087001208249087000208B497F
:100C50000870887040F22551874803F0B6F9C2E762
:100C60008648407B012862D18448007801285ED103
:100C700082480089012851D1744908707F48008951
:100C8000401E7E49887340F225517B4803F09DF950
:100C90000120774908700020069011E047E076486F
:100CA00003F00EF901A99DF81820885440F225514F
:100CB000714803F08AF99DF81800401CC0B20690F4
:100CC0009DF818001128EADB9DF81200FF281FD1BB
:100CD0009DF81300FF281BD19DF81400FF2817D1A1
:100CE000002006900DE001A99DF81800801C085C0A
:100CF0005D499DF8182088549DF81800401CC0B22A
:100D000006909DF818000C28EDDB00204F49087074
:100D100040F22551584803F058F964E7002057493C
:100D2000087040F22551544803F04FF95BE700BFCB
:100D300059E710B540F22551514803F014F9012844
:100D40007DD14F4803F0BCF84C4908810846007833
:100D500090B908460089802808D101200870002039
:100D60008870C8700873C8728872487340F2255141
:100D7000434803F02AF910BD40488078002831D15B
:100D80003E48007801282DD13C480089012806D131
:100D90003A498872887000203A4908701CE0374848
:100DA0000089022807D10120344948738870002047
:100DB0003449087010E031480089042808D1012026
:100DC000304908702D49887000202F49087003E0D1
:100DD00000202A490870887040F22551284803F005
:100DE000F4F8C8E72548807A012869D123480078BB
:100DF000012865D12148008915490870012015494D
:100E0000087000201D4908708872887010480078AA
:100E100002283DD100201049087001201B490860BC
:100E2000BB21174803F048F800BF8021144803F0A5
:100E30009AF80028F9D000BF4021114800E0E8E00E
:100E400003F091F80028F7D034E000000000002003
:100E500006000020070000201200002002000020F1
:100E600004000020100000203C010020140000209D
:100E70001300002030000020003801403C0D00200D
:100E8000004400401F0000202A0100202C01002007
:100E9000AA21D94803F010F800BF8021D64803F0FA
:100EA00062F80028F9D000BF4021D34803F05BF876
:100EB0000028F9D040F22551CF4803F086F85AE7D0
:100EC000CE48407B012871D1CC48007801286DD1F3
:100ED000CA480089012815D1C948007890B9002076
:100EE000C84908700120C8490870C4480089401EDC
:100EF000C249887340F22551BF4803F066F80120CB
:100F0000BF490870BD480089012806D0BC48007858
:100F100018B90020B94908702DE7B94800780128B0
:100F20000DD1B8480078112809DCB64800780028AF
:100F300005DDB2480089B549B24A12788854B148F3
:100F40000078401CAF490870AD48007801282DD1C9
:100F500008460078122829D10020A9490870A9491B
:100F600008700DE0A949A7480078C01C085CA84992
:100F7000A44A12788854A3480078401CA1490870FC
:100F8000A04800780F28EDDB00209F490870012061
:100F9000A04908700020994908704873887040F291
:100FA0002551954803F011F8E5E6FFE79A480078E7
:100FB00001282ED1914800899849924A1278885484
:100FC0000846904A1278815C8B4802F075FF8D4884
:100FD0000078022812D1914800788D4908708F4816
:100FE000407848708D488078C87201208C4908701C
:100FF0000020824908708349087004E08148007825
:10100000401C8049087040F225517B4802F0DDFF0A
:10101000B1E60821784802F0A6FF012806D1082190
:10102000754802F0A9FF744802F04AFF00BFA2E62B
:1010300000B587B040F225517A4802F094FF0128AC
:101040007BD1784802F03CFF6C4908810846007863
:1010500098B908460089802808D10120087000202E
:101060008870C8700873C8728872487340F225513E
:101070006C4802F0AAFF07B000BD60488078F0B964
:101080005E48007801281AD15C480089012803D104
:101090005A49887288700CE058480089022804D1A7
:1010A000012056494873887003E0002053490870B6
:1010B000887040F225515B4802F087FFDBE74F481C
:1010C000807A01281BD14D480078012817D14B4860
:1010D000008955490870012054490870002047498B
:1010E0000870887050480078022802D100205049CA
:1010F000087040F225514B4802F067FFBBE73F48BC
:10110000407B012862D13D48007801285ED13B48F0
:101110000089012851D13C49087038480089401E97
:101120003649887340F225513E4802F04EFF0120B7
:10113000384908700020069011E047E0394802F075
:10114000BFFE01A99DF81820885440F2255135486A
:1011500002F03BFF9DF81800401CC0B206909DF8BD
:1011600018001128EADB9DF81200FF281FD19DF816
:101170001300FF281BD19DF81400FF2817D1002071
:1011800006900DE001A99DF81800801C085C20491C
:101190009DF8182088549DF81800401CC0B2069095
:1011A0009DF818000C28EDDB00201749087040F26C
:1011B00025511C4802F009FF5DE700200F49087027
:1011C00040F22551174802F000FF54E700BF52E7F4
:1011D0007047704770477047704770477047704757
:1011E0007047704770477047704770477047704747
:1011F0007047704770477047004400403C0D002026
:101200001E0000202A010020000000204C0D0020BC
:101210003C010020130000201F00002021000020BE
:1012200020000020004800400600002007000020A9
:101230001200002000B587B04FF4E130019000208B
:10124000ADF80800ADF80A00ADF80C00ADF81000DC
:101250000C20ADF80E000020ADF81200ADF814001F
:101260004FF40070ADF816000020ADF8180001A989
:10127000FB4802F04AFD01222821F94802F0C0FD96
:10128000012240F22551F64802F0BAFD0121F4484E
:1012900002F0AAFD07B000BDF248006820F001008E
:1012A000F049086000BFEF48001D006800F0010031
:1012B0000028F8D1704710B5FFF778FB0446EA48DC
:1012C000C06940F00070E849C8610846806940F094
:1012D00001008861E548406820F4C040E349486067
:1012E0000846406840F480404860DF48806940F02C
:1012F0000800DD498861DE48006820F00F00DC4905
:1013000008600846006840F0080008600846006869
:1013100020F0F00008600846006840F0B000086067
:10132000D448006840F480104FF0E021C1F800017B
:101330001120CC4908600320CA49143108601220EA
:10134000B4FBF0F0CC49B0FBF1F4C6481C300068A7
:10135000CA490840C3491C31086008460068611E3C
:10136000C1F30801C64A11430843BE491C31086055
:1013700010BD1FB5FFF79FFF01208DF80000002072
:101380008DF8010001208DF802000020ADF8040066
:10139000ADF80600ADF80800ADF80A00ADF80C0095
:1013A00001208DF80E00684600F0D3FBFFF774FFB4
:1013B0001FBD00B585B00121080301F083FC0020AA
:1013C000ADF800004FF48270ADF802004FF40060F9
:1013D000ADF804000220ADF806000020ADF80800CA
:1013E0004FF40070ADF80A000820ADF80C000020A2
:1013F000ADF80E000720ADF810006946A14801F0D5
:10140000F5FC01219F4801F08EFD05B000BD08B537
:1014100001214FF4EA1001F09BF84FF4E050ADF8D1
:10142000000003208DF8020010208DF803006946AB
:10143000954800F0BDFF2020ADF8000003208DF896
:10144000020010208DF803006946904800F0B0FFBC
:101450000120ADF8000003208DF8020010208DF867
:10146000030069468248001F00F0A2FF1020ADF87B
:10147000000003208DF8020010208DF8030069465B
:10148000824800F095FFE020ADF8000003208DF8C1
:10149000020018208DF8030069467B4800F088FFA1
:1014A0004FF48070ADF8000048208DF80300032051
:1014B0008DF8020069466E48001F00F079FF4FF476
:1014C0000070ADF8000018208DF8030003208DF89F
:1014D000020069466648001F00F06AFF0420ADF86C
:1014E000000018208DF8030001208DF802006946E5
:1014F000654800F05DFF0820ADF8000004208DF87D
:1015000003006946604800F053FF4FF40070ADF8E7
:10151000000018208DF8030001208DF802006946B4
:10152000594800F045FF4FF48060ADF800000420FA
:101530008DF803006946544800F03AFF08BD10B525
:10154000042002F053FD482002F064FD012002F067
:1015500080FD10BD08B500214FF0006001F04EF98C
:101560004FF4C06001F093F81C208DF800000020BB
:101570008DF8010001208DF802008DF80300684607
:1015800001F08BF814208DF8000000208DF8010088
:101590008DF8020001208DF80300684601F07DF807
:1015A00026208DF8000000208DF801008DF8020043
:1015B00001208DF80300684601F06FF80022012138
:1015C000334801F057F908BD10B501F00BFA4FF49C
:1015D000803001F026FA01F063FA2E4908700846BF
:1015E0000078012826D1002001F0A3FA002001F0A4
:1015F000B2FA4FF4806001F0A5FA022000F04CFE30
:10160000102000F05FFE4FF4E0114FF4803001F045
:1016100073FA012001F07CFA00BF392001F024FAAE
:101620000028FAD0022001F076FA00BF01F07CFA1F
:101630000828FBD101211D2001F044FB01210846AF
:1016400001F04DFB0121080301F049FB0121480491
:1016500001F045FB0121480601F041FB10BD0000EF
:1016600000440040006400400010024000000140BF
:10167000040C014000E100E020A1070000FE80FC16
:1016800000004B0300300140000801400010014001
:101690009AC302003001002010B5524802F0ECFA63
:1016A000FFF792FFFFF756FFFFF749FFFFF7AFFE87
:1016B000FFF77FFEFFF75DFEFFF7BCFD10BD10B525
:1016C00004462146474802F0F7FB00BF8021454809
:1016D00002F049FC0028F9D000BF4021414802F047
:1016E00042FC0028F9D010BD10B500243D4802F09E
:1016F000E7FB044600BF20213A4802F034FC0028F2
:10170000F9D0204610BD37B586B0002400200190E6
:1017100041F23420029004208DF80C0000208DF856
:101720000D0003208DF80E009DF818008DF80F00B5
:101730009DF81C108DF810109DF820108DF81110D8
:1017400001A800F0A8FA054600BF00E0641C284686
:1017500000F04AFB012801D0FF2CF7D1002400E063
:10176000641C002000F0C0FB012801DAFE2CF7D138
:1017700009B030BD01B51C490098B1FBF0F0401E26
:101780001A4988804FF4B47008800020C8804880CF
:101790004FF0804001F09AFC14494FF0804001F076
:1017A00000FD01221146900701F09CFF08BD10B515
:1017B00004460F480460012002F030FC00BF0C48D2
:1017C00000680028FBDC6FF0010002F027FC00201D
:1017D00002F024FC10BD06480068401E0449086061
:1017E0007047000000440040400D0300700D0020D1
:1017F0002C01002010B500BF02215D4801F017FC4C
:101800000028F9D04FF47041594801F0BDFB102178
:10181000584800F079FE00BF0221554801F007FC4E
:101820000028F9D01021534800F070FE4FF4104109
:101830004F4801F0A9FB00BF80214D4801F0F7FBA4
:101840000128F9D010214B4800F05EFE10BD10B504
:10185000044600BF0221464801F0E9FB0028F9D008
:101860001021444800F052FE44F48041404801F009
:101870008BFB00BF80213E4801F0D9FB0128F9D045
:1018800010213C4800F040FE10BD70B504460D46E6
:1018900000BF0221364801F0CAFB0028F9D0102110
:1018A000344800F033FE45F48041314801F06CFBD0
:1018B00000BF80212E4801F0BAFB0128F9D0102189
:1018C0002C4800F021FE00BF0221294801F0AFFBA7
:1018D0000028F9D01021274800F018FE44F44041B8
:1018E000234801F051FB00BF8021214801F09FFBFC
:1018F0000128F9D010211F4800F006FE70BD10B578
:1019000000BF02211A4801F092FB0028F9D01021F3
:10191000184800F0FBFD4FF48041154801F034FBFE
:1019200000BF8021124801F082FB0128F9D010216C
:10193000104800F0E9FD00BF02210D4801F077FBDF
:101940000028F9D010210B4800F0E0FD4FF4404191
:10195000074801F019FB00BF8021054801F067FB33
:101960000128F9D01021034800F0CEFD10BD000081
:10197000003001400010014003480047034804497B
:10198000044A054B7047000031010008E00D0020BB
:10199000E0150020E0110020E011002030BF70476A
:1019A00020BF704740BF7047BFF36F8F7047BFF3D2
:1019B0004F8F7047BFF35F8F704701DF7047EFF3C2
:1019C0001480704780F31488BFF36F8F7047EFF374
:1019D0000980704780F309887047EFF308807047EB
:1019E00080F30888704762B6704772B67047EFF3AD
:1019F0001080704771B6704761B67047EFF313807F
:101A0000704780F311887047EFF31280704740BA37
:101A1000704700BA7047000010B50121480601F078
:101A200078F900214FF0007001F073F910BD10B586
:101A3000014600200123FA4C2360231D1B6803F09C
:101A4000010303B984E00B78012B06D1F44B1B682A
:101A500043F08003F24C236005E0F14B1B6823F058
:101A60008003EF4C23604B78012B06D1EC4B1B68B5
:101A700043F04003EA4C236005E0E94B1B6823F088
:101A80004003E74C23608B78012B06D1E44B1B68A5
:101A900043F02003E24C236005E0E14B1B6823F098
:101AA0002003DF4C2360CB78012B06D1DC4B1B6875
:101AB00043F01003DA4C236005E0D94B1B6823F098
:101AC0001003D74C23600B79012B06D1D44B1B6834
:101AD00043F00803D24C236005E0D14B1B6823F090
:101AE0000803CF4C23604B79012B06D1CC4B1B68EC
:101AF00043F00403CA4C236005E0C94B1B6823F084
:101B00000403C74C23608B799B07CC7943EA0463B9
:101B10000C7A43EA04434C7A43EA04534C89641E2A
:101B20002343BF4C1C3423600120BD4B1B6823F0B2
:101B30000103BB4C2360820201E0531E9AB2002ACB
:101B4000FBDCB74B1B1D1B6803F0010303B1002036
:101B500010BD10B50021037801229A4091B2B14A1C
:101B6000126842F00102AF4B1A60AE4A1C32126892
:101B70008A43AC4B1C331A608278CAB9A94A0C322A
:101B800012688A43A74B0C331A60C288438942EA21
:101B90000343A44A4032047842F8343082880389EF
:101BA00042EA03439F4A4032047802EBC402536086
:101BB0008278012A19D19B4A0C3212680A43994B48
:101BC0000C331A60C288838842EA0343954A403244
:101BD000047842F834304289038942EA0343914A47
:101BE0004032047802EBC402536042783AB98D4A1D
:101BF000121D12688A438B4B1B1D1A6006E0894A2E
:101C0000121D12680A43874B1B1D1A60828932B964
:101C1000844A143212688A43824B14331A608289D0
:101C2000012A06D17F4A143212680A437D4B1433CD
:101C30001A60827B012A06D17A4A1C3212680A4352
:101C4000784B1C331A60774A126822F00102754BF8
:101C50001A6010BD0021017041708170C170017166
:101C600041718171C171032101720221417201210F
:101C70004181704739B16A4A143212680243684B95
:101C800014331A6006E0664A143212688243644BC9
:101C900014331A60704710B501460020604A0832BC
:101CA000126802F08062B2F1806F00D114E05C4AE9
:101CB0000832126802F00062B2F1006F01D1012017
:101CC0000AE0574A0832126802F08052B2F1805F8F
:101CD00001D1022000E0042004287CD0514A803A3F
:101CE00002EB0012126802F001034E4A803A02EB46
:101CF000001213600A7ABAB90A88C2F30A020A60AB
:101D00000A8852050A60474A803A02EB00121368BB
:101D10000C7A0A6822434C7A22431343414A803AA0
:101D200002EB0012136016E04A6822F060424A603B
:101D30004A68D2004A603B4A803A02EB00121368BC
:101D40000C7A4A6822434C7A22431343354A803A3C
:101D500002EB001213608A7A02F00F028A72314A93
:101D6000803A02EB0012526822F00F032D4A803AAB
:101D700002EB001253602B4A803A02EB00125268C9
:101D80008B7A1A43274B803B03EB00135A608A7B04
:101D900013064A7B43EA02430A7B43EA0223CA7AD8
:101DA0001343204A803A02EB001293608A7C1306A8
:101DB0004A7C43EA02430A7C43EA0222CB7B134378
:101DC000184A803A02EB0012D360164A803A02EBBE
:101DD0000012126800E006E042F00103114A803A66
:101DE00002EB0012136010BD0146002021B1012951
:101DF0001AD002293CD129E0094A0832126802F0BF
:101E0000010240EA8200064A0832126802F0020229
:101E10001043034A08321268C2F38062104329E07B
:101E20000064004000660040F74A126802F48072C5
:101E300040EA9210F44A126802F4007240EA12205A
:101E4000F14A1268C2F3C062104313E0EE4A12680E
:101E500002F4803240EA9230EB4A126802F4003217
:101E600040EA1240E84A1268C2F30072104301E0EF
:101E7000002000BF00BF20B1052804D0072806D1EC
:101E800003E0022005E0002003E0012001E0002043
:101E900000BF00BF704720B1012809D0022815D12A
:101EA0000DE0D949096841F08001D74A11600EE080
:101EB000D549096841F40041D34A116007E0D2498D
:101EC000096841F40001D04A116000E000BF00BF82
:101ED000704720B92021CC4A121D116003E0202157
:101EE000C94A0832116070470146002029B9C64A24
:101EF000121D126802F0030008E0012905D1C24A50
:101F00000832126802F0030000E00020704710B5AC
:101F100004460B46BD4800EB0410006800F00400C6
:101F20001872187A48B9B94800EB0410006840F2FA
:101F3000FF7101EA5050186008E0B44800EB04104B
:101F400000686FF0604101EAD0005860AF4800EBD4
:101F50000410006800F002005872AC4800EB041056
:101F6000406800F00F009872A84800EB0410406829
:101F7000000AD874A54800EB04108068D872A34802
:101F800000EB04108068010A1973A04800EB0410EC
:101F90008068010C59739D4800EB04108068000EA6
:101FA00098739A4800EB0410C068D873974800EB08
:101FB0000410C068010A1974944800EB0410C0684A
:101FC000010C5974914800EB0410C068000E98741D
:101FD0002046FFF77EFF10BD00208B4908390968B5
:101FE00041F00201884A083A11600120114609684F
:101FF00001F0020101B90020704700208249083930
:10200000096821F00201804A083A116000BF1146B8
:10201000096801F0020101B9012070470146002062
:10202000794A103212680A400AB1012000E000200B
:1020300070477549103109688143734A1032116045
:1020400070470246002002EA01030BB1012000E0C4
:102050000020704770B504460025402C4FD00EDCA0
:10206000072C2CD006DC042C31D0052C19D0062CE2
:1020700076D11DE0082C32D0202C71D137E0B4F598
:10208000806F54D006DCB4F5807F40D0B4F5007F7B
:1020900066D144E0B4F5803F59D0B4F5003F5FD13C
:1020A0004DE0594908680121FFF7CBFF054659E08B
:1020B000554908688915FFF7C4FF054652E05249A3
:1020C00008684FF48031FFF7BCFF05464AE04E49EF
:1020D000091D08680821FFF7B4FF054642E04A4998
:1020E000091D08681021FFF7ACFF05463AE0464994
:1020F000083108680821FFF7A4FF054632E042498D
:10210000083108681021FFF79CFF05462AE03E4988
:10211000103108680121FFF794FF054622E03A4993
:10212000103108680221FFF78CFF05461AE0364996
:10213000103108680421FFF784FF054612E0324998
:10214000091F08681021FFF77CFF05460AE02E49A9
:10215000091F08680821FFF774FF054602E0FFE742
:10216000002500BF00BF284670BD40283ED00EDCD1
:10217000072827D006DC042829D0052819D00628EE
:102180005ED11AE0082827D0202859D129E0B0F5DF
:10219000806F44D006DCB0F5807F2CD0B0F5007F96
:1021A0004ED135E0B0F5803F40D0B0F5003F47D18B
:1021B00041E00121144A116043E04FF48071124A5A
:1021C00011603EE04FF480310F4A116039E0082180
:1021D0000D4A121D116034E010210B4A121D1160CE
:1021E0002FE00821084A083211602AE01021064A2F
:1021F0000832116025E004491031096821F001011D
:10220000014A103211601CE008640040B0650040D3
:102210002049096821F002011E4A116011E01D49A0
:10222000096821F004011B4A11600AE00821194ADB
:10223000143A116005E01021164A143A116000E0CA
:1022400000BF00BF7047F0B585B004460D460026BC
:102250000220009000208DF808008DF8090003206E
:102260008DF80A0080208DF80B008DF80C508DF849
:102270000D406846FFF70FFD074600BF00E0761CE3
:102280003846FFF7B1FD012801D0FF2EF7D105B088
:10229000F0BD0000186400401049096801F03801E1
:1022A0000E4A1160114609680143116070470B49DD
:1022B000096821F00801094A1160114609680143C3
:1022C000116070470549096821F01001034A116047
:1022D0001146096801431160704700000020024068
:1022E00010B50446C549601A8C422FD009DCC44899
:1022F000204480B1B0F5806F16D0B0F5006F4AD1A0
:102300001BE0B0F5806F2AD0B0F5006F30D0B0F58B
:10231000406F40D135E00121042000F0EDFC0021A8
:10232000042000F0E9FC37E00121082000F0E4FC83
:102330000021082000F0E0FC2EE00121102000F038
:10234000DBFC0021102000F0D7FC25E0012120203B
:1023500000F0D2FC0021202000F0CEFC1CE0012186
:10236000402000F0C9FC0021402000F0C5FC13E033
:102370000121802000F0C0FC0021802000F0BCFC86
:102380000AE00121080200F0B7FC00214FF4807040
:1023900000F0B2FC00E000BF00BF10BD10B501218D
:1023A000084600F0A9FC0021012000F0A5FC10BDAA
:1023B0002DE9F041024600250026002000230024DC
:1023C000002791F803C00CF00F0591F803C00CF042
:1023D000100CBCF1000F03D091F802C04CEA0505C7
:1023E00091F800C0BCF1000F30D0146800202AE042
:1023F0004FF0010C0CFA00F3B1F800C00CEA030630
:102400009E421FD183004FF00F0C0CFA03F7BC4320
:1024100005FA03FC4CEA040491F803C0BCF1280F50
:1024200005D14FF0010C0CFA00FCC2F814C091F871
:1024300003C0BCF1480F05D14FF0010C0CFA00FCB1
:10244000C2F810C0401C0828D2D31460B1F800C0F4
:10245000BCF1FF0F34DD546800202EE000F1080CC1
:102460004FF0010808FA0CF3B1F800C00CEA0306BB
:102470009E4221D183004FF00F0C0CFA03F7BC43AE
:1024800005FA03FC4CEA040491F803C0BCF1280FE0
:1024900005D100F1080C08FA0CF8C2F8148091F884
:1024A00003C0BCF1480F07D100F1080C4FF0010840
:1024B00008FA0CF8C2F81080401C0828CED35460EB
:1024C000BDE8F0814FF6FF71018002218170042187
:1024D000C17070470246002093680B400BB1012089
:1024E00000E0002070470146886880B270470246CD
:1024F0000020D3680B400BB1012000E000207047A2
:102500000146C86880B270470161704741617047F9
:102510000AB1016100E041617047C16070474FF44A
:1025200080320A4382618161826182698269704777
:1025300002460020334B18684FF68073184040EA7B
:10254000021008432F4B186070472F49C86170472D
:10255000F0B50A460023002400210025294E7168A9
:10256000C0F3034583B200F44016B6F5401F08D10E
:1025700021F07061234E766826F07066214F7E60F0
:1025800012E000F48016B6F5801F06D1032606FA85
:1025900005F4A14341F0706106E0460D360103FAEF
:1025A00006F6B14341F0706122B1460D360103FADF
:1025B00006F63143134E7160F0BD30B500228B0733
:1025C0001C0F0F2303FA04F20E4B08338C1053F840
:1025D000243093430B4C08348D1044F825302346A7
:1025E0008C1053F824308C07240F00FA04F4234392
:1025F000044C08348D1044F8253030BD00140140DF
:1026000000F8FEBF00000140000020420020411EF3
:10261000ED4A11600A09EC498039C1F88420411E55
:102620004FF0E022C2F880120A09E8490A6000BFB0
:1026300004E00022E64941F82020401C0F28F8D38E
:10264000704700204FF02061E24A11600021121D06
:102650001160E149121D11600021121D1160121D4F
:10266000116000BF05E00022DA49143141F8202052
:10267000401C0328F7D30021D64A20321160491E9E
:10268000121D1160121D1160121D11607047D24998
:102690000143D04A083211607047F0B50021002292
:1026A000002300250F24C678002E35D0C94E0836E9
:1026B000366806F4E066C6F5E066310AC1F1040545
:1026C000CC40467806FA05F1867826403143090168
:1026D0000678B607F60EB140BD4E0778BF1056F823
:1026E00027200678B607F70EFF2606FA07F39A4367
:1026F00019400A43B64E0778BF1046F827200678DF
:1027000006F01F070126BE4007787F11BF0007F1C2
:10271000E027C7F800610BE0067806F01F070126E6
:10272000BE40A94F90F800C04FEA6C1C47F82C60DF
:10273000F0BD0021017041708170C170704710B50B
:10274000FFF753F910BD10B5FFF74DF910BD10B5E7
:10275000FFF750F910BD10B5FFF74EF910BD10B5D9
:1027600004462001FFF74DF910BD10B5FFF74CF9F5
:1027700010BD98480068C0F30930704710B5014695
:102780000020002201F01F04012303FA04F28E4B03
:1027900080334C1153F824301340934201D101206F
:1027A00000E0002010BD8D490860704700F01F0256
:1027B00001219140854A121F431142F823107047AE
:1027C00084480068C0F30900704710B50146002036
:1027D000002201F01F04012303FA04F27B4B7C3337
:1027E0004C1153F824301340934201D1012000E0F2
:1027F000002010BD7748001F00687047784A0A40E3
:102800000243744B1B1D1A6070477348001D7149C9
:102810000831086070477048401C6E4908310860F4
:10282000704739B16B4A0C3212680243694B0C3362
:102830001A6006E0674A0C3212688243654B0C331B
:102840001A60704710B5002200F01F04012303FA3C
:1028500004F239B15F4B20331B6813435D4C2034C5
:10286000236006E05B4B20331B689343594C2034B4
:10287000236010BDF0B503460C4615460020FF222C
:1028800000260021534F08373F6807F4E067C7F57B
:10289000E067390AC1F10400CA4004FA00F105EA10
:1028A00002073943090103F0C0008009C3F3012284
:1028B000D700B9404FEAC20CFF2707FA0CF6454F84
:1028C000143757F82070B743DFF808C10CF1140C27
:1028D0004CF82070674657F820700F434CF8207072
:1028E000F0BD10B50246002000230021910A01F03E
:1028F0000F01012404FA01F1364C2034246804EA63
:1029000001038B4201D1012000E0002010BD002115
:1029100000F01F012F4A126801238B401A432D4BF0
:102920001A60704710B5002100F01F01294A126893
:102930004B1E01249C402243264B1A6010BD10B54B
:102940000246002000230021C2F38331012404FA4F
:1029500001F1204C2034246804EA01038B4201D1A8
:10296000012000E0002010BD30B50146002000220B
:102970000023C1F38142C1F301531AB9154C283425
:10298000206811E0012A0CD1124C24342468DD00A7
:1029900024FA05F0022B02D000F00F0004E0C0B2D0
:1029A00002E00C4C2C34206830BD0146002000228F
:1029B000C1F380521AB9074B3033186802E0054B57
:1029C000343318687047000080E100E084E200E0E2
:1029D00000E400E004ED00E00000FA0500EF00E094
:1029E00080FFFF1FE048006840F00100DE490860FA
:1029F00008464068DD490840DB49486008460068F1
:102A0000DB490840D84908600846006820F4802067
:102A100008600846406820F4FE0048600020886096
:102A20007047D149096821F48031CF4A11601146BD
:102A3000096821F480211160B0F5803F03D0B0F522
:102A4000802F0ED106E0C849096841F48031C64A9A
:102A5000116007E0C449096841F4A021C24A11602D
:102A600000E000BF00BF704710B501460022002300
:102A700000204A11012A02D1BB4C236806E0022A39
:102A800002D1B94C236A01E0B74C636A01F01F021E
:102A9000012494401C400CB1012000E0002010BD36
:102AA00010B5002400BF3120FFF7DEFFB1490870E8
:102AB000B1480068401CB0490860AE48007828B9A9
:102AC0000846006840F2FF118842ECD13120FFF740
:102AD000CBFF08B1012400E00024204610BD0146D0
:102AE0000020A14A106820F0F80040EAC100106000
:102AF0007047A24908607047024600209A4B586808
:102B000020F47C1042EA01031843974B5860704749
:102B10009A490866704701460020934A506820F0A1
:102B200003000843506070478F48406800F00C0075
:102B30007047014600208C4A506820F0F00008439E
:102B40005060704701460020874A506820F4E060DA
:102B500008435060704701460020834A506820F4C3
:102B6000605040EAC1005060704729B17E4A527AF5
:102B700002437D4B5A7204E07B4A527A82437A4B7D
:102B80005A7270477D49D83108607047014600206D
:102B9000754A506820F44040084350607047002157
:102BA000714A20321170704A82F82010012802D038
:102BB00004280AD104E001216B4A2032117005E09B
:102BC0000521694A2032117000E000BF00BF704744
:102BD0006B49086070476449096A0143624A11629F
:102BE0007047674944390860704730B500210022BA
:102BF000002400235C4D6D6805F00C0121B104290F
:102C000005D0082923D105E05E4D056022E05D4D29
:102C100005601FE0544D6D6805F47012022505EB48
:102C20009242514D6D6805F480341CB9564D5543A0
:102C300005600BE04C4D6D6805F400351DB1524D3B
:102C40005543056002E04F4D5543056002E04D4D90
:102C5000056000BF00BF444D6D6805F0F001090933
:102C60004A4D6B5C0568DD4045603F4D6D6805F47D
:102C7000E061090A454D6B5C4568DD4085603A4D71
:102C80006D6805F46051C90A404D6B5C4568DD40D4
:102C9000C560354D6D6805F44041890B3C4D6B5C5A
:102CA000C568B5FBF3F5056130BD29B12E4A5269FF
:102CB00002432D4B5A6104E02B4A526982432A4B4E
:102CC0005A61704729B1284A92690243264B9A619A
:102CD00004E0254A92698243234B9A61704729B1E7
:102CE000214AD2690243204BDA6104E01E4AD269CC
:102CF00082431D4BDA61704729B11B4AD2680243F7
:102D0000194BDA6004E0184AD2688243164BDA6045
:102D1000704729B1144A12690243134B1A6104E047
:102D2000114A12698243104B1A61704714494039A5
:102D3000086070471149C86470470B49C8717047F3
:102D40000948406A40F08070074948627047014670
:102D50000020054A92680A400AB1012000E00020E4
:102D60007047014988727047001002400000FFF868
:102D7000FFFFF6FE3401002038010020000042422F
:102D80008004424200127A0000093D0026410008FA
:102D90003641000810B50446CB48204478B1B0F560
:102DA000806F16D0B0F5784F1DD101210803FFF7D1
:102DB000A3FF00214FF48050FFF79EFF14E0012194
:102DC0008803FFF7A6FF00214FF48040FFF7A1FF23
:102DD0000AE00121C803FFF79CFF00214FF40040E7
:102DE000FFF797FF00E000BF00BF10BD10B5002245
:102DF000028802F441520B884C8823438C88234379
:102E0000CC8823430C8923434C8923438C89234357
:102E1000CC8923431A430280838B4FF2FF742340F3
:102E200083830B8A038210BD2DE9F04786B00546E7
:102E30000C464FF0000902274FF000084FF0010A3E
:102E40000026A88B4FF240010840A8830220288466
:102E5000B5F81C902089022801D100BF31E0A0887C
:102E600010B94FF0010A01E04FF0020A01A8FFF784
:102E7000BCFEE088B0F5007F0AD1019800EB80002D
:102E8000400021890902B0FBF1F0401D86B20BE041
:102E90004FEA4A1021894843019901EB8101490019
:102EA000B1FBF0F0401D86B20A20B6FBF0F606F04A
:102EB0000108A6EB0800C0F34F074FF6FF7000EAC9
:102EC0000828022F01DBFF2F02DD02274FF0000848
:102ED00047EA0800E18808432884208840F400601D
:102EE00061880843A18808436189084340EA0909C9
:102EF000A5F81C9006B0BDE8F08700210180418054
:102F00008180C180018141818181C181072101824C
:102F100070470021018041808180C18002210181B0
:102F200000214181704721B1028842F040020280B5
:102F300004E002884FF6BF731A400280704721B147
:102F4000828B42F48062828304E0828B4FF6FF33EF
:102F50001A408283704730B5002400230C110125EC
:102F6000A540ABB21AB185881D43858002E08588F3
:102F70009D43858030BD1AB183880B43838002E076
:102F800083888B438380704781817047014688899D
:102F900070474FF6FF62914204D0028842F480727B
:102FA000028004E002884FF6FF631A4002807047F7
:102FB00021B1828842F00402828004E082884FF6C8
:102FC000FB731A408280704702884FF2FF731A40E9
:102FD000028002880A4302807047018841F48051D0
:102FE0000180704721B1028842F40052028004E05F
:102FF00002884DF6FF731A40028070470246002097
:10300000012901D0108B00E0908A70470146088AA0
:103010007047B1F5804F04D1028842F480420280AB
:1030200004E002884BF6FF731A40028070470246A4
:10303000002013890B400BB1012000E000207047F5
:10304000202905D10289028842F04002028007E06F
:10305000402901D0082901D1028901E0CA43028137
:103060007047F0B50246002000240023002501F03F
:103070000F070126BE40B4B20B1101269E40B3B229
:10308000968806EA03051689264016B10DB101207F
:1030900000E00020F0BD10B50022552905D10389BC
:1030A000038843F0400303800CE0562901D05329E4
:1030B00001D1038906E001F00F040123A3409AB275
:1030C000D343038110BD000000C8FFBF10B5044604
:1030D000F749601A8C4245D00CDCB4F1804F1DD00A
:1030E000F448204418B3B0F5806F29D0B0F5006FD4
:1030F00054D12EE0B0F5806F3DD0B0F58E3F03D0B7
:10310000B0F5923F4AD13FE00121C802FFF7F4FD3C
:1031100000214FF40060FFF7EFFD40E00121084679
:10312000FFF7F7FD00210120FFF7F3FD37E0012154
:103130000220FFF7EEFD00210220FFF7EAFD2EE05E
:1031400001210420FFF7E5FD00210420FFF7E1FD48
:1031500025E001210820FFF7DCFD00210820FFF712
:10316000D8FD1CE001211020FFF7D3FD0021102025
:10317000FFF7CFFD13E001212020FFF7CAFD00215A
:103180002020FFF7C6FD0AE001214803FFF7B4FD48
:1031900000214FF40050FFF7AFFD00E000BF00BF7B
:1031A00010BD028802F08F020280CA884B881A4341
:1031B00003881A4302808A8882850A880285012250
:1031C0008282BD4A904202D0BC4A904201D10A7A22
:1031D0000286704770B5002400220023058C4FF64C
:1031E000FE7635400584028C8388048B4FF68F75FC
:1031F0002C400D882C43751E2A400D892A434D888A
:103200002A43CD888586AC4DA84202D0AB4DA8425A
:1032100013D14FF6F7752A404D892A434FF6FB75B7
:103220002A408D882A4347F6FF652B4047F6FF5515
:103230002B408D892B43CD892B43838004830284CB
:1032400070BD70B5002400220023058C4FF6EF7688
:1032500035400584028C8388048B48F6FF752C402A
:103260000D884FF6FF7606EA05252C434FF6DF75ED
:103270002A400D8906EA05152A434D8806EA0515F8
:103280002A43CD8805878C4DA84202D08B4DA84299
:103290001DD14FF67F752A404D894FF6FF7606EA1D
:1032A00005152A434FF6BF752A408D8806EA051595
:1032B0002A4347F6FF352B4047F2FF752B408D8997
:1032C00006EA85052B43CD8906EA85052B438380D5
:1032D0000483028470BD70B5002400220023058C95
:1032E0004FF6FF6635400584028C8388848B4FF649
:1032F0008F752C400D882C434FF6FF552A400D89C1
:103300004FF6FF7606EA05252A434D8806EA05258D
:103310002A43CD888587684DA84202D0674DA842D0
:103320001DD14FF2FF752A404D894FF6FF7606EA10
:1033300005252A434FF6FF352A408D8806EA0525E4
:103340002A4346F6FF752B4045F6FF752B408D89C5
:1033500006EA05152B43CD8906EA05152B43838024
:103360008483028470BD70B5002400220023058C84
:103370004EF6FF7635400584028C8388848B48F6B0
:10338000FF752C400D884FF6FF7606EA05252C4385
:103390004DF6FF752A400D8906EA05352A434D880A
:1033A00006EA05352A43CD88A0F84050424DA84290
:1033B00002D0424DA84207D1C3F30D038D894FF6C9
:1033C000FF7606EA85152B4383808483028470BDD3
:1033D000828B4FF2FF331A408283828B4FF6FF734A
:1033E00003EA01231A4382837047F0B50C46154661
:1033F000002100220026078C4EF6FF7C07EA0C070E
:103400000784818B028C4FF6FF7707EA043640F67B
:10341000FF4739404FF6FF7707EA05274FF6FF7C55
:103420000CEA033C47EA0C0739434DF6FF773A4074
:1034300046F480573A4381830284F0BD828B4FF675
:10344000F3731A408283828B0A4382837047F0B5FC
:103450000C461546002100220026078C4FF6FF6C13
:1034600007EA0C070784818B028C4FF6FF7707EA87
:1034700004264FF60C7739404FF6FF7707EA03171B
:103480002F4339434FF6FF573A4046F480773A438B
:1034900081830284F0BD028B4FF2FF331A40028316
:1034A000028B4FF6FF7303EA01231A43028370472E
:1034B0000010004000FCFFBF002C01400034014020
:1034C000F0B50C461546002100220026078C4FF669
:1034D000EF7C07EA0C070784018B028C4FF6FF771D
:1034E00007EA041640F6FF4739404FF6FF7707EA30
:1034F000033739434FF6FF7707EA052739434FF67D
:10350000DF773A4046F010073A4301830284F0BD6A
:10351000028B4FF6F3731A400283028B0A43028335
:103520007047F0B50C46154600210022068C4FF678
:10353000FE773E400684018B028C4FF60C763140BC
:103540007E1C06EA03162E4331437E1E324044F0B1
:103550000106324301830284F0BD70B505460C4676
:10356000208850B92389A28861882846FFF7D9FFAF
:10357000E1882846FFF7CCFF25E0208804280AD1FF
:103580002389A28861882846FFF79AFFE1882846A8
:10359000FFF781FF17E0208808280AD12389A28835
:1035A00061882846FFF753FFE1882846FFF746FF6A
:1035B00009E02389A28861882846FFF716FFE18881
:1035C0002846FFF705FF70BD2DE9F04105460C4682
:1035D00000260127608808B9022600E00026A0889E
:1035E000012801D1022700E001272088A0B9238902
:1035F000A28861882846FFF794FFE1882846FFF7F4
:1036000087FF23893A4631462846FFF759FFE1886C
:103610002846FFF740FF13E02389A28861882846E7
:10362000FFF74EFFE1882846FFF735FF23893A462A
:1036300031462846FFF775FFE1882846FFF768FF07
:10364000BDE8F0810A884B881A438B881A43CB88DF
:103650001A430B891A434B891A438B891A43A0F8E2
:10366000442070474FF6FF71818000210180C180A6
:103670004180017270470021018041808180C180BA
:10368000018141818181C181704700210180418098
:10369000012181800021C1800181704700210180CA
:1036A00041808180C180018141818181704721B148
:1036B000028842F00102028004E0028840F2FE33F8
:1036C0001A400280704731B1B0F8442042F4004201
:1036D000A0F8442005E0B0F84420C2F30E02A0F8A0
:1036E000442070471AB183890B43838102E08389A8
:1036F0008B43838170478182704741EA0203A0F8BF
:10370000483070471AB183890B43838102E0838973
:103710008B438381704701894FF6F8721140018114
:1037200070470A46002101894FF68F7319401143F3
:103730000181704730B504460D4629462046FFF703
:10374000F0FF208940F00700208130BD2DE9F041D5
:1037500004460D4616461F46602D06D13B46012203
:1037600031462046FFF7ACFE05E03B4601223146DC
:103770002046FFF7D6FE29462046FFF7D2FF2089D4
:1037800040F007002081BDE8F08170B50C460021B3
:103790000189C9B244EA02054FF6FF7606EA03261C
:1037A00035432943018170BD2DE9F04105460E46A0
:1037B00017469846002443463A4631462846FFF7C6
:1037C000E4FF2C894FF6F870044044F007044FF6EC
:1037D0008F70044044F070042C81BDE8F081F0B596
:1037E00004460D4616461F463B46324629462046AD
:1037F000FFF7CBFF208940F480402081F0BD018598
:10380000828270470A460021018840F28F331940B6
:10381000114301807047F0B50C4615461E46002145
:10382000002200230189028B038C4FF6F877394080
:1038300021434FF6FC473A4040F201173A434FF616
:10384000DD773B404FF6FF7707EA06172F433B43F0
:10385000018102830384F0BD0A460021018B4FF6EB
:103860008F7319401143018370470A460021018B71
:1038700048F6FF7319404FF6FF7303EA022319431A
:10388000018370470A460021818B4FF68F731940E0
:103890001143818370470A460021818B48F6FF73EC
:1038A00019404FF6FF7303EA0223194381837047DF
:1038B00021B1028842F08002028004E0028840F2D6
:1038C0007F331A400280704721B1828842F004029F
:1038D000828004E082884FF6FB731A408280704732
:1038E00021B1828842F00802828004E082884FF68B
:1038F000F7731A408280704721B1828842F001023A
:10390000828004E082884FF6FE731A4082807047FE
:103910000A460021018B4FF6F773194011430183CA
:1039200070470A460021018B4FF2FF7319404FF692
:10393000FF7303EA02231943018370470A460021FB
:10394000818B4FF6F77319401143818370470A4604
:103950000021818B4FF2FF7319404FF6FF7303EA8A
:1039600002231943818370470A460021018B4FF6D9
:10397000FB7319401143018370470A460021018BF4
:103980004FF6FF3319404FF6FF7303EA0223194342
:10399000018370470A460021818B4FF6FB73194063
:1039A0001143818370470A460021818B4FF6FF3314
:1039B00019404FF6FF7303EA0223194381837047CE
:1039C0000A460021018B4FF67F7319401143018392
:1039D00070470A460021018BC1F30E014FF6FF73B9
:1039E00003EA02231943018370470A460021818BB1
:1039F0004FF67F7319401143818370470A460021B7
:103A0000818BC1F30E014FF6FF7303EA02231943C2
:103A1000818370470A460021018C4FF6FD731940DF
:103A20001143018470470A460021018C4FF6F77359
:103A300019401143018470470A460021018C4FF65A
:103A4000DF7319404FF6FF7303EA02131943018431
:103A500070470A460021018C4FF67F7319404FF6DC
:103A6000FF7303EA02131943018470470A460021D9
:103A7000018C4FF6FF5319404FF6FF7303EA022300
:103A80001943018470470A460021018C4FF2FF73ED
:103A900019404FF6FF7303EA02231943018470476C
:103AA0000A460021018C4DF6FF7319404FF6FF7353
:103AB00003EA023319430184704710B5038C0124D3
:103AC0008C40A3430384038C02FA01F4A4B2234381
:103AD000038410BD10B5038C04248C40A3430384DD
:103AE000038C02FA01F4A4B22343038410BD30B561
:103AF000038C01248C40A343038409B1082912D10B
:103B000000F1180303EB61031B684FF68F74234029
:103B100000F1180404EB6104236000F1180303EBC7
:103B200061031A6018E00B1FC3F34E0400F1180381
:103B30001B5948F6FF7423400C1FC4F34E0500F1D7
:103B4000180463514FF6FF7303EA02240B1FC3F3FB
:103B50004E0500F118035C5130BD21B1028842F0DE
:103B60000202028004E0028840F2FD331A40028023
:103B7000704721B1028842F00402028004E002880A
:103B800040F2FB331A400280704721B1828842F034
:103B90008002828004E082884FF67F731A40828020
:103BA0007047028840F2F7331A40028002880A43C5
:103BB0000280704782884FF68F731A408280828815
:103BC0000A438280704702894FF6F8731A400281D7
:103BD00002890A430281704702894FF67F731A40B7
:103BE000028102890A43028170478184704781857E
:103BF0007047818670470187704781877047A0F8BA
:103C0000401070470288D2B2028002880A430280C4
:103C100070470146888E70470146088F70470146FD
:103C2000888F70470146B1F8400070470146888C84
:103C300070470146088D704702460020138A0B40EA
:103C40000BB1012000E000207047CA430282704798
:103C500030B50246002000230024158A05EA01033E
:103C6000958905EA010413B10CB1012000E00020A0
:103C700030BDCA430282704710B50446D849601A65
:103C80008C422BD006DCD748204498B1B0F5806F29
:103C900038D119E0B0F5806F2AD0B0F56C4F31D132
:103CA00001218803FFF728F800214FF48040FFF737
:103CB00023F828E001214804FFF72BF800214FF4F6
:103CC0000030FFF726F81EE001218804FFF721F8F5
:103CD00000214FF48020FFF71CF814E00121C804F4
:103CE000FFF717F800214FF40020FFF712F80AE061
:103CF00001210805FFF70DF800214FF48010FFF7B0
:103D000008F800E000BF00BF10BD2DE9F04786B005
:103D100005460E460024A24600BF00BF00272F46DE
:103D20002C8A4CF6FF700440F08804432C82AC8946
:103D30004EF6F3100440B088318908437189084376
:103D400004430C20A881AC8A4FF6FF400440B089A0
:103D50000443AC8201A8FEF748FFA348874202D182
:103D6000DDF810A001E0DDF80CA00AEBCA0000EBC2
:103D70000A1031688900B0FBF1F86420B8FBF0F05C
:103D800004012009642101FB1089322000EB091095
:103D9000B0FBF1F000F00F0004432C8106B0BDE849
:103DA000F0874FF41651016000218180C1800181AC
:103DB0000C21418100218181704710B5024600200D
:103DC000108A4FF2FF0318400B884C8823438C88DD
:103DD0002343CC8823431843108210BD0021018067
:103DE00041808180C180704721B1828942F40052B4
:103DF000828104E082894DF6FF731A408281704708
:103E0000F0B5034600240026002500201846C1F323
:103E1000421401F01F06012707FA06F5012C01D113
:103E20000C3004E0022C01D1103000E014301AB143
:103E300007682F43076002E00768AF430760F0BDE3
:103E40001AB1838A0B43838202E0838A8B43838285
:103E50007047028A4FF6F0731A400282028A0A43C0
:103E60000282704782894FF2FF731A4082818289F1
:103E70000A438281704721B1828942F00202828125
:103E800004E082894FF6FD731A4082817047028AEE
:103E90004FF6DF731A400282028A0A430282704799
:103EA00021B1028A42F48042028204E0028A4BF687
:103EB000FF731A4002827047C1F308028280704784
:103EC00001468888C0F308007047818941F00101EC
:103ED00081817047028BD2B20283028B42EA0122B7
:103EE00002837047028B02F47F420283028B0A43F3
:103EF0000283704721B1828A42F02002828204E06C
:103F0000828A4FF6DF731A408282704721B1828A1B
:103F100042F01002828204E0828A4FF6EF731A4068
:103F20008282704721B1828A42F00802828204E0D4
:103F3000828A4FF6F7731A4082827047828A4FF660
:103F4000FB731A408282828A0A438282704721B1BF
:103F5000828A42F00202828204E0828A4FF6FD7376
:103F60001A40828270470246002013880B400BB132
:103F7000012000E000207047CA430280704770B5FE
:103F800002460B460024002100250020C3F3421501
:103F900003F01F01012606FA01F1012D02D19689D5
:103FA000314006E0022D02D1168A314001E0968AA6
:103FB00031401C12012606FA04F41688344011B16F
:103FC0000CB1012000E0002070BD10B500220023DC
:103FD0000A1201249440A3B2DC43048010BD000007
:103FE000004C004000BCFFBF00380140042808D14D
:103FF0004FF0E021096941F004014FF0E022116126
:1040000007E04FF0E021096921F004014FF0E022C0
:10401000116170474FF0E02148617047012808D1D5
:104020004FF0E021096941F001014FF0E0221161F8
:104030000EE0811C41B94FF0E021096921F0010136
:104040004FF0E022116103E000214FF0E022916186
:10405000704740B14FF0E021096941F002014FF093
:10406000E022116107E04FF0E021096921F002012F
:104070004FF0E022116170474FF0E02080697047F7
:1040800010B50146002200230020CB10022B03D1E3
:104090004FF0E024226902E04FF0E024E2690124BD
:1040A0008C4014400CB1012000E0002010BD70478E
:1040B00070477047754600F02BF8AE46050069461C
:1040C000534620F00700854618B020B5FDF756FC92
:1040D000BDE820404FF000064FF000074FF0000809
:1040E0004FF0000B21F00701AC46ACE8C009ACE88A
:1040F000C009ACE8C009ACE8C0098D46704710B5EE
:104100000446AFF300802046BDE81040FCF767B8D6
:10411000004870477C0D002001491820ABBEFEE727
:1041200026000200704700000000010203040102A3
:104130000304060708090204060800005C410008A1
:10414000000000203C0100006C01000854420008FF
:104150003C010020A4140000A8010008022C0193D7
:1041600040382E040008000C001000140018001C39
:104170002E2000240028002C0030003400382E3C73
:10418000004000440048004C005000542E58005C91
:10419000006000640068006C00702E740078007C81
:1041A000008000840088008C2E9000940098009C71
:1041B00000A000A400A82EAC00B000B400B800BC61
:1041C00000C000C42EC800CC00D000D400D800DC51
:1041D00000E03EE400E800EC00F000F400F800FC31
:1041E00000721701040108010C01100114011801EB
:1041F0001C012001240128012C0130013401380167
:104200003C014001440148014C0150015401580156
:104210005C016001640168016C0170017401780146
:104220007C018001840188018C0190019401980136
:104230009C01A001A401A801AC01B001B401B80126
:10424000BC01C001C401C801CC01D001D401D80116
:04425000DC01E001AC
:0400000508000131BD
:00000001FF
